:020000040800F2
:1000000000500020E1150008711500087715000860
:100010007D15000883150008891500080000000000
:100020000000000000000000000000008F15000824
:100030009B15000800000000A7150008B315000874
:100040002916000829160008291600082916000894
:100050002916000829160008291600082916000884
:100060002916000829160008291600082916000874
:100070002916000829160008291600082916000864
:100080002916000829160008291600082916000854
:100090002916000829160008291600082916000844
:1000A0002916000829160008291600082916000834
:1000B000C11500082916000829160008291600088D
:1000C0002916000829160008291600082916000814
:1000D0002916000829160008291600082916000804
:1000E000291600082916000829160008000000003B
:1000F0000000000000000000000000000000000000
:0C01000000000000000000005FF808F1A3
:10010C0010B5054C237833B9044B13B10448AFF345
:10011C0000800123237010BD280000200000000087
:10012C00842C000808B5034B1BB103490348AFF3FB
:10013C00008008BD000000002C000020842C00086A
:10014C0080B483B000AF786039607B68002B37DBFC
:10015C007B68632B34DC3B68002B31DB3B68632B07
:10016C002EDC7B68194A82FB03129210DB17D31A20
:10017C00174A13607968154B83FB01239A10CB1730
:10018C00D21A13469B0013445B00CA1A104B5A60D8
:10019C003B680E4A82FB03129210DB17D31A0C4AEF
:1001AC0093603968094B83FB01239A10CB17D21A41
:1001BC0013469B0013445B00CA1A054BDA6000E03F
:1001CC0000BF0C37BD4680BC704700BF67666666D3
:1001DC000000002080B500AF012280210B4801F007
:1001EC002AFD01224FF48071084801F024FD012200
:1001FC004FF40071054801F01EFD01224FF480619F
:10020C00024801F018FD00BF80BD00BF000C01408A
:10021C0080B582B000AF0346FB71FB79012B26D170
:10022C0000220121BA4801F006FD01220221B84842
:10023C0001F001FD01224FF48051B54801F0FBFCA7
:10024C0000224FF40051B24801F0F5FC00224FF4AB
:10025C008041AF4801F0EFFC00222021AC4801F0B6
:10026C00EAFC00224021AA4801F0E5FC7BE1FB7985
:10027C00022B26D101220121A54801F0DCFC012230
:10028C000221A34801F0D7FC00224FF48051A04872
:10029C0001F0D1FC01224FF400519D4801F0CBFC40
:1002AC0001224FF480419A4801F0C5FC0022202124
:1002BC00974801F0C0FC01224021954801F0BBFC9D
:1002CC0051E1FB79032B26D101220121904801F049
:1002DC00B2FC012202218E4801F0ADFC01224FF448
:1002EC0080518B4801F0A7FC01224FF40051884843
:1002FC0001F0A1FC00224FF48041854801F09BFCE9
:10030C0000222021824801F096FC012240218048E5
:10031C0001F091FC27E1FB79042B26D1002201216D
:10032C007B4801F088FC01220221794801F083FC12
:10033C0001224FF48051764801F07DFC00224FF4ED
:10034C000051734801F077FC00224FF48041704853
:10035C0001F071FC012220216D4801F06CFC01229E
:10036C0040216B4801F067FCFDE0FB79052B26D1A1
:10037C0001220121664801F05EFC00220221644842
:10038C0001F059FC01224FF48051614801F053FCFB
:10039C0001224FF400515E4801F04DFC00224FF455
:1003AC0080415B4801F047FC01222021584801F0B4
:1003BC0042FC01224021564801F03DFCD3E0FB7980
:1003CC00062B26D101220121514801F034FC0022D8
:1003DC0002214F4801F02FFC01224FF480514C4870
:1003EC0001F029FC01224FF40051494801F023FC93
:1003FC0001224FF48041464801F01DFC01222021CE
:10040C00434801F018FC01224021414801F013FC43
:10041C00A9E0FB79072B26D1012201213C4801F0F0
:10042C000AFC012202213A4801F005FC01224FF49A
:10043C008051374801F0FFFB00224FF40051344843
:10044C0001F0F9FB00224FF48041314801F0F3FB3D
:10045C00002220212E4801F0EEFB002240212C48E6
:10046C0001F0E9FB7FE0FB79082B26D10122012169
:10047C00274801F0E0FB01220221254801F0DBFBBB
:10048C0001224FF48051224801F0D5FB01224FF498
:10049C0000511F4801F0CFFB01224FF480411C4852
:1004AC0001F0C9FB01222021194801F0C4FB0122F3
:1004BC004021174801F0BFFB55E0FB79092B29D1EE
:1004CC0001220121124801F0B6FB01220221104841
:1004DC0001F0B1FB01224FF480510D4801F0ABFB50
:1004EC0001224FF400510A4801F0A5FB00224FF401
:1004FC008041074801F09FFB01222021044801F0B4
:10050C009AFB01224021024801F095FB2BE000BF31
:10051C00000C0140FB79002B25D10122012114484C
:10052C0001F089FB01220221114801F084FB012218
:10053C004FF480510E4801F07EFB01224FF4005124
:10054C000B4801F078FB01224FF48041084801F080
:10055C0072FB01222021064801F06DFB0022402194
:10056C00034801F068FB00BF0837BD4680BD00BFE3
:10057C00000C014080B582B000AF0346FB71FB79E3
:10058C00032B00F2838001A252F823F0A905000886
:10059C00E5050008210600085D06000801228021FF
:1005AC00484801F048FB01224FF48071454801F0A6
:1005BC0042FB01224FF40071424801F03CFB002247
:1005CC004FF480613F4801F036FB3F4BDB68DBB2F8
:1005DC001846FFF71DFE71E001228021394801F019
:1005EC002AFB01224FF48071364801F024FB0022D3
:1005FC004FF40071334801F01EFB01224FF480616F
:10060C00304801F018FB304B9B68DBB21846FFF703
:10061C00FFFD53E0012280212A4801F00CFB00224F
:10062C004FF48071274801F006FB01224FF4007152
:10063C00244801F000FB01224FF48061214801F0B5
:10064C00FAFA214B5B68DBB21846FFF7E1FD35E0A7
:10065C00002280211B4801F0EEFA01224FF4807138
:10066C00184801F0E8FA01224FF40071154801F026
:10067C00E2FA01224FF48061124801F0DCFA124BCD
:10068C001B68DBB21846FFF7C3FD17E00022802180
:10069C000C4801F0D0FA00224FF48071094801F0A7
:1006AC00CAFA00224FF40071064801F0C4FA002285
:1006BC004FF48061034801F0BEFA00BF00BF083759
:1006CC00BD4680BD000C01400000002080B500AF8D
:1006DC00394B1B78042B6BD801A252F823F000BFC6
:1006EC00010700082B070008410700086B070008EA
:1006FC008107000801220421304801F09CFA0022F5
:10070C0002212E4801F097FA012210212B4801F00A
:10071C0092FA00224021294801F08DFA49E0012289
:10072C004021264801F087FA00222021234801F0BD
:10073C0082FA3EE001220221204801F07CFA0022DC
:10074C0008211E4801F077FA012220211B4801F0F4
:10075C0072FA00221021194801F06DFA29E00122E9
:10076C000821164801F067FA00220421134801F011
:10077C0062FA1EE001220221104801F05CFA01220B
:10078C0004210E4801F057FA012208210B4801F010
:10079C0052FA01221021094801F04DFA01222021C0
:1007AC00064801F048FA01224021044801F043FABE
:1007BC0000BF00BF80BD00BF440000200008014006
:1007CC0080B500AF00F02CFF00F020F800F0A6F888
:1007DC0000F058F80C4801F075FE00F0E1FC00F058
:1007EC0061FE032000F042FE034683F00103DBB2FE
:1007FC00002B05D000F012FD3221032000F0E2FDA9
:10080C0000F020F9EDE700BF4800002080B590B063
:10081C0000AF07F1180328220021184602F000FA55
:10082C003B1D00221A605A609A60DA601A6102233A
:10083C00BB610123BB621023FB6200237B6307F1C6
:10084C001803184601F010FA0346002B01D000F0F3
:10085C00F3F80F237B600023BB600023FB600023B5
:10086C003B6100237B613B1D0021184601F07EFC9F
:10087C000346002B01D000F0DFF800BF4037BD4627
:10088C0080BD000080B586B000AF07F108030022E0
:10089C001A605A609A60DA603B4600221A605A600D
:1008AC001D4B4FF080421A601B4B40F21F325A60B6
:1008BC00194B00229A60184B0922DA60164B002261
:1008CC001A61154B00229A61134801F0ABFD0346E7
:1008DC00002B01D000F0B0F84FF48053BB6007F14F
:1008EC00080319460C4801F047FF0346002B01D0C2
:1008FC0000F0A2F800233B6000237B603B461946C6
:10090C00054802F01DF90346002B01D000F094F8C5
:10091C0000BF1837BD4680BD4800002080B588B0A8
:10092C0000AF07F1100300221A605A609A60DA6077
:10093C00384B9B69374A43F010039361354B9B69E5
:10094C0003F01003FB60FB68324B9B69314A43F0A8
:10095C00040393612F4B9B6903F00403BB60BB68DA
:10096C002C4B9B692B4A43F008039361294B9B69E1
:10097C0003F008037B607B6800224FF4005126488B
:10098C0001F059F900227E21244801F054F900228B
:10099C0047F2FF71224801F04EF94FF400533B61CE
:1009AC0001237B610023BB610223FB6107F1100370
:1009BC001946194800F0A4FF7E233B6101237B619B
:1009CC000023BB610223FB6107F110031946134896
:1009DC0000F096FF4FF460733B6100237B610123B1
:1009EC00BB6107F1100319460C4800F089FF47F270
:1009FC00FF733B6101237B610023BB610223FB611D
:100A0C0007F110031946064800F07AFF00BF2037A3
:100A1C00BD4680BD0010024000100140000801409E
:100A2C00000C014080B582B000AF786000F0ECFCA7
:100A3C0000BF0837BD4680BD80B400AF72B600BFA2
:100A4C00FEE7000080B500AF012000F00FFD03466B
:100A5C0083F00103DBB2002B28D09F4B1B78002BBB
:100A6C0010D19E4B1B781A469D4B1B7819469D4BFB
:100A7C001B780B449A4205D09B4B04221A70FFF74B
:100A8C00A9FB0FE0994B1B685A1E98490A60DBB210
:100A9C001846FFF76FFD954B1B68002B02DA934B42
:100AAC0003221A600121012000F08CFC8A4B1B7878
:100ABC000C2B00F2548101A252F823F0FD0A00081D
:100ACC00250B0008D90B00088D0C0008530B0008EF
:100ADC00070C0008BB0C0008C30B0008770C0008BF
:100AEC00550D00087B0B00082F0C00080D0D00089D
:100AFC007A4B1B781A467A4B1B781946794B1B7824
:100B0C000B449A4203D0784B04221A7001E000F097
:100B1C0031F900F0B7F923E1754B1B78002B03D1A9
:100B2C006E4B1A78734B1A70724B1B780221184655
:100B3C00FFF706FB00F07EFA00F0A4F900F0FAF9DA
:100B4C0000F038FA0CE16B4B1B780133DAB2694BCD
:100B5C001A70684B1B78632B02D9664B00221A70F3
:100B6C00634B01221A705C4B01221A70F8E0614B46
:100B7C001B7802211846FFF7E3FA042000F076FCFC
:100B8C00034683F00103DBB2002B11D0594B1B78C9
:100B9C000133DAB2574B1A70564B1B78632B02D9C0
:100BAC00544B00221A704FF4FA71042000F00AFC26
:100BBC0000F0C0F9D4E04F4B1A78484B1A704C4BEC
:100BCC0000221A70444B01221A70C9E0484B5B7822
:100BDC00002B03D1424B1A78474B1A70464B1B78AB
:100BEC0003211846FFF7ACFA00F024FA00F04AF99A
:100BFC0000F0A0F900F0DEF9B2E03F4B1B780133B6
:100C0C00DAB23D4B1A703C4B1B78632B02D93A4B32
:100C1C0000221A70364B01225A702F4B02221A7086
:100C2C009EE0354B1B7803211846FFF789FA042008
:100C3C0000F01CFC034683F00103DBB2002B11D047
:100C4C002D4B1B780133DAB22B4B1A702A4B1B78C5
:100C5C00632B02D9284B00221A704FF4FA7104202E
:100C6C0000F0B0FB00F066F97AE0234B1A781C4BCD
:100C7C001A701F4B00225A70174B02221A706FE029
:100C8C001B4B9B78002B03D1164B1A781B4B1A70FD
:100C9C001A4B1B7804211846FFF752FA00F0CAF9D8
:100CAC0000F0F0F800F046F900F084F958E0134B2E
:100CBC001B780133DAB2114B1A70104B1B78632B73
:100CCC0002D90E4B00221A70094B01229A70024B6A
:100CDC0003221A7044E000BF900000201600002090
:100CEC00180000201A0000204400002010000020F2
:100CFC009800002017000020190000201B00002085
:100D0C00184B1B7802211846FFF71AFA042000F042
:100D1C00ADFB034683F00103DBB2002B11D0114B6A
:100D2C001B780133DAB20F4B1A700E4B1B78632B06
:100D3C0002D90C4B00221A704FF4FA71042000F007
:100D4C0041FB00F0F7F80BE0064B1A78064B1A70D3
:100D5C00064B00229A70064B03221A7000E000BF6B
:100D6C0000BF80BD1B0000201A000020980000204E
:100D7C009000002080B500AF022000F077FB034606
:100D8C0083F00103DBB2002B6DD04FF47A7102209B
:100D9C0000F018FBFFF79AFC344B1B785A1ED1B2AB
:100DAC00324A11701846324B1B785A1ED1B2304A57
:100DBC0011701946FFF7C4F92E4B1B78042B49D838
:100DCC0001A252F823F000BFE90D0008010E000843
:100DDC00210E0008390E0008590E0008244B1B7810
:100DEC00002B39D1234B01221A70234B1A78204B3C
:100DFC001A7031E01E4B1B78002B2FD11D4B022299
:100E0C001A701E4B1A78194B1A701D4B1A78184B06
:100E1C001A7023E0154B1B78002B21D1154B0322A4
:100E2C001A70154B1A78114B1A7019E00F4B1B786E
:100E3C00002B17D10F4B00221A70114B1A780B4B49
:100E4C001A700E4B1A780A4B1A700BE0094B0422DD
:100E5C001A7008E000BF06E000BF04E000BF02E02B
:100E6C0000BF00E000BF00BF80BD00BF1400002029
:100E7C001500002044000020180000201A0000205B
:100E8C001600002080B500AF264B1B78002B38D005
:100E9C00012B40D1002000F07FFA0346002B3CD000
:100EAC00214B1B78032B24D801A252F823F000BF4E
:100EBC00CD0E0008D50E0008E30E0008F10E000858
:100ECC00194B01221A7015E0184B00221A70164BA0
:100EDC0002221A700EE0154B00225A70124B03229C
:100EEC001A7007E0114B00229A700F4B00221A70F7
:100EFC0000E000BF0B4B00221A700D4B00221A7041
:100F0C000EE0002000F048FA0346002B07D1054BF9
:100F1C0001221A7003E000BF02E000BF00E000BF36
:100F2C0000BF80BD9400002090000020980000209D
:100F3C004400002080B500AF1C4B5B78002B23D005
:100F4C00012B2BD1012000F027FA0346002B27D0D0
:100F5C00174B1B78032B0ED0032B10DC012B02D06C
:100F6C00022B04D00BE0124B04221A7008E0104B39
:100F7C0005221A7004E00E4B06221A7000E000BF26
:100F8C000A4B00225A700EE0012000F005FA0346CD
:100F9C00002B07D1054B01225A7003E000BF02E081
:100FAC0000BF00E000BF00BF80BD00BF9400002068
:100FBC009000002080B500AF1C4B9B78002B23D0F9
:100FCC00012B2BD1022000F0E7F90346002B27D090
:100FDC00174B1B78032B0ED0032B10DC012B02D0EC
:100FEC00022B04D00BE0124B07221A7008E0104BB6
:100FFC0008221A7004E00E4B09221A7000E000BFA0
:10100C000A4B00229A700EE0022000F0C5F903464C
:10101C00002B07D1054B01229A7003E000BF02E0C0
:10102C0000BF00E000BF00BF80BD00BF94000020E7
:10103C009000002080B500AF564B1B78002B79D068
:10104C00554B1B78032B44D0032B61DC012B02D0B6
:10105C00022B1FD05CE000220221504800F0EBFD77
:10106C00002210214D4800F0E6FD012204214B48DE
:10107C0000F0E1FD01222021484800F0DCFD0122B6
:10108C000821464800F0D7FD01224021434800F0DA
:10109C00D2FD3EE001220221404800F0CCFD0122AD
:1010AC0010213E4800F0C7FD002204213B4800F00F
:1010BC00C2FD00222021394800F0BDFD012208218B
:1010CC00364800F0B8FD01224021344800F0B3FD51
:1010DC001FE001220221314800F0ADFD0122102158
:1010EC002E4800F0A8FD012204212C4800F0A3FD9D
:1010FC0001222021294800F09EFD002208212748CA
:10110C0000F099FD00224021244800F094FD00E0FD
:10111C0000BF002000F0AAF9034683F00103DBB204
:10112C00002B35D0FA21002000F04CF9194B00228D
:10113C001A702DE001220221184800F07CFD0122DA
:10114C001021164800F077FD01220421134800F00D
:10115C0072FD01222021114800F06DFD01220821B1
:10116C000E4800F068FD012240210C4800F063FDA0
:10117C00002000F07BF9034683F00103DBB2002B67
:10118C0006D0FA21002000F01DF9024B01221A7042
:10119C0000BF80BD9B000020900000200008014093
:1011AC0080B483B000AF0023FB712CE0FB791A4AAA
:1011BC00012102F83310FB79174ADB00134401229A
:1011CC005A70FB79144ADB00134401229A70FB79A4
:1011DC00114ADB0013440122DA70FB790E4ADB0062
:1011EC00134400221A71FB790B4ADB0013440022D2
:1011FC005A71FB79084ADB00134440F2DC52DA8066
:10120C00FB790133FB71FB79022BCFD900BF00BFF7
:10121C000C37BD4680BC70479C00002090B583B055
:10122C0000AF0023FB71AAE0FB79FA795849DB0087
:10123C000B4498785649D3000B440246DA70FB797C
:10124C00FA795349DB000B4458785149D3000B44CD
:10125C0002469A70FA79FB794D4911F832104C4AD2
:10126C00DB0013440A465A70FB79002B0AD1FC7937
:10127C008021484800F0C8FC03461A46444B03F84A
:10128C0034201CE0FB79012B0BD1FC794FF48071DD
:10129C00404800F0B9FC03461A463D4B03F8342095
:1012AC000DE0FB79022B0AD1FC794FF4007139481F
:1012BC0000F0AAFC03461A46354B03F83420FB79A0
:1012CC00334ADB001344DA78FB793149DB000B44F9
:1012DC009B789A4250D1FB792D4ADB0013449A78C3
:1012EC00FB792B49DB000B445B789A4244D1FB79A8
:1012FC00274ADB0013445A78FB79254911F833301F
:10130C009A4239D1FB79224A12F83330002B20D182
:10131C00FB791F4ADB00134401221A71FB791C4A2A
:10132C00DB001344DB88002B0CD0FA791849D3006E
:10133C000B44DB88013B98B21549D3000B440246A1
:10134C00DA8019E0FB79124ADB00134401225A714E
:10135C0012E0FB790E4ADB00134440F2DC52DA80D7
:10136C00FB790B4ADB00134400221A71FB79084A03
:10137C00DB00134400225A71FB790133FB71FB79BA
:10138C00022B7FF651AF00BF00BF0C37BD4690BD9E
:10139C009C0000200008014080B483B000AF0346DD
:1013AC00FB71FB79032B01D9FF2304E0FB79044A81
:1013BC00DB0013441B7918460C37BD4680BC7047C4
:1013CC009C00002080B483B000AF03463960FB71F1
:1013DC003B684FF47A7203FB02F2FB790849A1FBDC
:1013EC00021292090749DB000B445A60FB79054A4B
:1013FC00002102F8331000BF0C37BD4680BC70478B
:10140C00D34D6210B400002080B483B000AF002331
:10141C00FB711FE0FB79144ADB0013445B68002B63
:10142C0015D0FA791049D3000B445B68591E0E484D
:10143C00D30003445960FB790B4ADB0013445B680F
:10144C00002B04D1FB79084A012102F83310FB79F7
:10145C000133FB71FB79042BDCD900BF00BF0C37C7
:10146C00BD4680BC704700BFB400002080B483B080
:10147C0000AF0346FB71FB79094A12F83330002B9D
:10148C0014BF01230023DBB283F00103DBB203F0B2
:10149C000103DBB218460C37BD4680BC704700BF59
:1014AC00B400002080B500AFFA210020FFF78AFFBE
:1014BC0001210120FFF786FF4FF47A710220FFF71C
:1014CC0081FF32210320FFF77DFF4FF4FA710420D6
:1014DC00FFF778FF00BF80BD80B483B000AF0E4B28
:1014EC009B690D4A43F0010393610B4B9B6903F01D
:1014FC0001037B607B68084BDB69074A43F0805330
:10150C00D361054BDB6903F080533B603B6800BF44
:10151C000C37BD4680BC70470010024080B584B0CB
:10152C0000AF78607B681B68B3F1804F13D10C4B14
:10153C00DB690B4A43F00103D361094BDB6903F010
:10154C000103FB60FB68002200211C2000F0A1F9C4
:10155C001C2000F0BAF900BF1037BD4680BD00BF9B
:10156C000010024080B400AFFEE780B400AFFEE78D
:10157C0080B400AFFEE780B400AFFEE780B400AFEC
:10158C00FEE780B400AF00BFBD4680BC704780B49E
:10159C0000AF00BFBD4680BC704780B400AF00BF39
:1015AC00BD4680BC704780B500AF00F07FF800BF2F
:1015BC0080BD000080B500AF024800F0D5FF00BF31
:1015CC0080BD00BF4800002080B400AF00BFBD4606
:1015DC0080BC7047FFF7F8FF0B480C490C4A0023FE
:1015EC0002E0D458C4500433C4188C42F9D3094ACD
:1015FC00094C002301E013600432A242FBD301F03A
:10160C0017FBFFF7DDF870470000002028000020D2
:10161C00C82C000828000020E0000020FEE7000095
:10162C0080B500AF084B1B68074A43F010031360EA
:10163C00032000F023F90F2000F008F8FFF74CFF0F
:10164C000023184680BD00BF0020024080B582B048
:10165C0000AF7860124B1A68124B1B7819464FF486
:10166C007A73B3FBF1F3B2FBF3F3184600F03BF9DA
:10167C000346002B01D001230EE07B680F2B0AD808
:10168C00002279684FF0FF3000F003F9064A7B68BE
:10169C001360002300E0012318460837BD4680BDC7
:1016AC001C000020240000202000002080B400AF8B
:1016BC00054B1B781A46054B1B681344034A1360F1
:1016CC0000BFBD4680BC704724000020DC00002019
:1016DC0080B400AF024B1B681846BD4680BC7047F7
:1016EC00DC00002080B485B000AF78607B6803F02C
:1016FC000703FB600C4BDB68BB60BA684FF6FF035B
:10170C001340BB60FB681A02BB68134343F0BF6312
:10171C0043F40033BB60044ABB68D36000BF14378A
:10172C00BD4680BC704700BF00ED00E080B400AF48
:10173C00044BDB681B0A03F007031846BD4680BC4C
:10174C00704700BF00ED00E080B483B000AF0346EB
:10175C00FB7197F90730002B0BDBFB7903F01F02B1
:10176C00064997F907305B09012000FA02F241F8AB
:10177C00232000BF0C37BD4680BC704700E100E061
:10178C0080B483B000AF03463960FB7197F9073022
:10179C00002B0ADB3B68DAB20C4997F907301201CF
:1017AC00D2B20B4483F800230AE03B68DAB2084952
:1017BC00FB7903F00F03043B1201D2B20B441A76EF
:1017CC0000BF0C37BD4680BC704700BF00E100E095
:1017DC0000ED00E080B489B000AFF860B9607A60C9
:1017EC00FB6803F00703FB61FB69C3F10703042BE0
:1017FC0028BF0423BB61FB690433062B02D9FB69A8
:10180C00033B00E000237B614FF0FF32BB6902FA1F
:10181C0003F3DA43BB681A407B699A404FF0FF31FF
:10182C007B6901FA03F3D9437B680B4013431846D9
:10183C002437BD4680BC704780B582B000AF78605D
:10184C007B68013BB3F1807F01D301230FE00A4A8F
:10185C007B68013B53600F214FF0FF30FFF790FF87
:10186C00054B00229A60044B07221A60002318468D
:10187C000837BD4680BD00BF10E000E080B582B0E7
:10188C0000AF78607868FFF72DFF00BF0837BD46C2
:10189C0080BD80B586B000AF0346B9607A60FB733B
:1018AC0000237B61FFF742FF78617A68B968786939
:1018BC00FFF790FF024697F90F3011461846FFF7D5
:1018CC005FFF00BF1837BD4680BD80B582B000AF4A
:1018DC000346FB7197F907301846FFF735FF00BF39
:1018EC000837BD4680BD80B582B000AF786078689F
:1018FC00FFF7A2FF034618460837BD4680BD00001F
:10190C0080B48BB000AF7860396000237B62002319
:10191C003B6269E101227B6A02FA03F3FB613B68DB
:10192C001B68FA691340BB61BA69FB699A4240F0C3
:10193C0058813B685B689A4A93425ED0984A9342BE
:10194C0075D8984A934258D0964A93426FD8964A83
:10195C00934252D0944A934269D8944A93424CD0C1
:10196C00924A934263D8924A934246D0904A934209
:10197C005DD8122B2AD8122B59D801A252F823F079
:10198C00071A0008E1190008F3190008351A0008B5
:10199C003B1A00083B1A00083B1A00083B1A0008C7
:1019AC003B1A00083B1A00083B1A00083B1A0008B7
:1019BC003B1A00083B1A00083B1A00083B1A0008A7
:1019CC003B1A0008E9190008FD190008794A9342EE
:1019DC0013D02CE03B68DB683B6229E03B68DB689A
:1019EC0004333B6224E03B68DB6808333B621FE056
:1019FC003B68DB680C333B621AE03B689B68002B4E
:101A0C0002D104233B6213E03B689B68012B05D198
:101A1C0008233B627B68FA691A6109E008233B6280
:101A2C007B68FA695A6103E000233B6200E000BF67
:101A3C00BB69FF2B01D87B6801E07B6804337B61B9
:101A4C00BB69FF2B02D87B6A9B0002E07B6A083BD8
:101A5C009B003B617B691A680F213B6901FA03F318
:101A6C00DB431A40396A3B6901FA03F31A437B6979
:101A7C001A603B685B6803F08053002B00F0B18068
:101A8C004D4B9B694C4A43F0010393614A4B9B6954
:101A9C0003F00103BB60BB68484A7B6A9B080233B6
:101AAC0052F82330FB607B6A03F003039B000F2288
:101ABC0002FA03F3DB43FA681340FB607B68404A8D
:101ACC00934213D07B683F4A93420DD07B683E4AC9
:101ADC00934207D07B683D4A934201D1032306E031
:101AEC00042304E0022302E0012300E000237A6ACD
:101AFC0002F0030292009340FA681343FB602F49F3
:101B0C007B6A9B080233FA6841F823203B685B68C8
:101B1C0003F48013002B06D02D4B9A682C49BB691B
:101B2C0013438B6006E02A4B9A68BB69DB43284958
:101B3C0013408B603B685B6803F40013002B06D0EA
:101B4C00234BDA682249BB691343CB6006E0204B78
:101B5C00DA68BB69DB431E491340CB603B685B68AA
:101B6C0003F40033002B06D0194B5A681849BB6993
:101B7C0013434B6006E0164B5A68BB69DB431449B0
:101B8C0013404B603B685B6803F48033002B21D01F
:101B9C000F4B1A680E49BB6913430B6021E000BF61
:101BAC000000321000003110000022100000211043
:101BBC000000121000001110001002400000014043
:101BCC0000080140000C01400010014000140140CD
:101BDC00000401400B4B1A68BB69DB4309491340F5
:101BEC000B607B6A01337B623B681A687B6A22FA62
:101BFC0003F3002B7FF48EAE00BF00BF2C37BD4625
:101C0C0080BC70470004014080B485B000AF7860A0
:101C1C000B467B807B689A687B881340002B02D034
:101C2C000123FB7301E00023FB73FB7B1846143785
:101C3C00BD4680BC704780B483B000AF78600B4663
:101C4C007B8013467B707B78002B03D07A887B6873
:101C5C001A6103E07B881A047B681A6100BF0C3799
:101C6C00BD4680BC7047000080B586B000AF786080
:101C7C007B68002B01D1012372E27B681B6803F0A7
:101C8C000103002B00F08780924B5B6803F00C0380
:101C9C00042B0CD08F4B5B6803F00C03082B12D178
:101CAC008C4B5B6803F48033B3F5803F0BD1894BCD
:101CBC001B6803F40033002B6CD07B685B68002B33
:101CCC0068D101234CE27B685B68B3F5803F06D199
:101CDC00804B1B687F4A43F4803313602EE07B6893
:101CEC005B68002B0CD17B4B1B687A4A23F4803346
:101CFC001360784B1B68774A23F4802313601DE034
:101D0C007B685B68B3F5A02F0CD1724B1B68714AD2
:101D1C0043F4802313606F4B1B686E4A43F480338B
:101D2C0013600BE06B4B1B686A4A23F4803313601F
:101D3C00684B1B68674A23F4802313607B685B68DD
:101D4C00002B13D0FFF7C4FC386108E0FFF7C0FC90
:101D5C0002463B69D31A642B01D9032300E25D4B85
:101D6C001B6803F40033002BF0D014E0FFF7B0FC39
:101D7C00386108E0FFF7ACFC02463B69D31A642BD0
:101D8C0001D90323ECE1534B1B6803F40033002B04
:101D9C00F0D100E000BF7B681B6803F00203002B4E
:101DAC0063D04C4B5B6803F00C03002B0BD0494BFE
:101DBC005B6803F00C03082B1CD1464B5B6803F4E7
:101DCC008033002B16D1434B1B6803F00203002B0E
:101DDC0005D07B681B69012B01D00123C0E13D4B71
:101DEC001B6823F0F8027B685B69DB0039491343FD
:101DFC000B603AE07B681B69002B20D0364B01222C
:101E0C001A60FFF765FC386108E0FFF761FC0246D9
:101E1C003B69D31A022B01D90323A1E12D4B1B687B
:101E2C0003F00203002BF0D02A4B1B6823F0F802BE
:101E3C007B685B69DB00274913430B6015E0264B7D
:101E4C0000221A60FFF744FC386108E0FFF740FC01
:101E5C0002463B69D31A022B01D9032380E11D4BA7
:101E6C001B6803F00203002BF0D17B681B6803F0A6
:101E7C000803002B3AD07B689B69002B19D0174BB9
:101E8C0001221A60FFF724FC386108E0FFF720FC00
:101E9C0002463B69D31A022B01D9032360E10D4B97
:101EAC005B6A03F00203002BF0D0012000F09CFAD7
:101EBC001CE00A4B00221A60FFF70AFC38610FE0A5
:101ECC00FFF706FC02463B69D31A022B08D9032301
:101EDC0046E100BF00100240000042428004424232
:101EEC00924B5B6A03F00203002BE9D17B681B6801
:101EFC0003F00403002B00F0A6800023FB758B4B32
:101F0C00DB6903F08053002B0DD1884BDB69874ACA
:101F1C0043F08053D361854BDB6903F08053BB6086
:101F2C00BB680123FB75824B1B6803F48073002B89
:101F3C0018D17F4B1B687E4A43F480731360FFF704
:101F4C00C7FB386108E0FFF7C3FB02463B69D31AB5
:101F5C00642B01D9032303E1754B1B6803F48073D5
:101F6C00002BF0D07B68DB68012B06D16F4B1B6A12
:101F7C006E4A43F0010313622DE07B68DB68002B93
:101F8C000CD16A4B1B6A694A23F001031362674B3D
:101F9C001B6A664A23F0040313621CE07B68DB684F
:101FAC00052B0CD1614B1B6A604A43F0040313628E
:101FBC005E4B1B6A5D4A43F0010313620BE05B4B03
:101FCC001B6A5A4A23F001031362584B1B6A574A87
:101FDC0023F0040313627B68DB68002B15D0FFF73A
:101FEC0077FB38610AE0FFF773FB02463B69D31AB3
:101FFC0041F28832934201D90323B1E04B4B1B6A67
:10200C0003F00203002BEED014E0FFF761FB386104
:10201C000AE0FFF75DFB02463B69D31A41F28832B6
:10202C00934201D903239BE0404B1B6A03F002034C
:10203C00002BEED1FB7D012B05D13C4BDB693B4AE0
:10204C0023F08053D3617B68DB69002B00F0878021
:10205C00364B5B6803F00C03082B61D07B68DB69A3
:10206C00022B46D1334B00221A60FFF731FB38614B
:10207C0008E0FFF72DFB02463B69D31A022B01D96E
:10208C0003236DE0294B1B6803F00073002BF0D188
:10209C007B681B6AB3F5803F08D1244B5B6823F443
:1020AC0000327B689B68214913434B601F4B5B6874
:1020BC0023F474127B68196A7B685B6A0B431B49B7
:1020CC0013434B601B4B01221A60FFF701FB386175
:1020DC0008E0FFF7FDFA02463B69D31A022B01D93F
:1020EC0003233DE0114B1B6803F00073002BF0D071
:1020FC0035E0104B00221A60FFF7EAFA386108E06D
:10210C00FFF7E6FA02463B69D31A022B01D90323E7
:10211C0026E0064B1B6803F00073002BF0D11EE089
:10212C007B68DB69012B07D1012319E00010024009
:10213C0000700040600042420B4B5B68FB60FB6828
:10214C0003F480327B681B6A9A4206D1FB6803F465
:10215C0070127B685B6A9A4201D0012300E0002375
:10216C0018461837BD4680BD0010024080B584B0BB
:10217C0000AF786039607B68002B01D10123D0E07F
:10218C006A4B1B6803F007033A689A4210D9674BF5
:10219C001B6823F0070265493B6813430B60634BD4
:1021AC001B6803F007033A689A4201D00123B8E098
:1021BC007B681B6803F00203002B20D07B681B6834
:1021CC0003F00403002B05D0594B5B68584A43F4C9
:1021DC00E06353607B681B6803F00803002B05D099
:1021EC00534B5B68524A43F460535360504B5B68EB
:1021FC0023F0F0027B689B684D4913434B607B686E
:10220C001B6803F00103002B40D07B685B68012B3B
:10221C0007D1474B1B6803F40033002B15D1012366
:10222C007FE07B685B68022B07D1414B1B6803F096
:10223C000073002B09D1012373E03D4B1B6803F0A5
:10224C000203002B01D101236BE0394B5B6823F0B7
:10225C0003027B685B68364913434B60FFF738FA1F
:10226C00F8600AE0FFF734FA0246FB68D31A41F231
:10227C008832934201D9032353E02D4B5B6803F062
:10228C000C027B685B689B009A42EBD1274B1B6866
:10229C0003F007033A689A4210D2244B1B6823F0D0
:1022AC00070222493B6813430B60204B1B6803F069
:1022BC0007033A689A4201D0012332E07B681B681D
:1022CC0003F00403002B08D0194B5B6823F4E06285
:1022DC007B68DB68164913434B607B681B6803F013
:1022EC000803002B09D0124B5B6823F460527B6807
:1022FC001B69DB000E4913434B6000F021F80246CA
:10230C000B4B5B681B0903F00F030A49CB5C22FAE9
:10231C0003F3094A1360094B1B681846FFF796F93B
:10232C00002318461037BD4680BD00BF0020024078
:10233C00001002409C2C00081C00002020000020F3
:10234C0080B487B000AF0023FB600023BB60002388
:10235C007B6100237B6000233B611E4B5B68FB6051
:10236C00FB6803F00C03042B02D0082B03D027E0EE
:10237C00194B3B6127E0FB689B0C03F00F03174ADA
:10238C00D35C7B60FB6803F48033002B10D0114BC3
:10239C005B685B0C03F00103114AD35CBB607B6888
:1023AC000D4A03FB02F2BB68B2FBF3F37B6104E062
:1023BC007B680C4A02FB03F37B617B693B6102E0A7
:1023CC00054B3B6100BF3B6918461C37BD4680BCC2
:1023DC00704700BF0010024000127A00AC2C0008BD
:1023EC00BC2C000800093D0080B485B000AF7860BB
:1023FC000A4B1B680A4AA2FB03235B0A7A6802FB9E
:10240C0003F3FB6000BFFB685A1EFA60002BF9D186
:10241C0000BF00BF1437BD4680BC70471C000020B5
:10242C00D34D621080B582B000AF78607B68002B12
:10243C0001D1012341E07B6893F83D30DBB2002BE6
:10244C0006D17B68002283F83C207868FFF766F899
:10245C007B68022283F83D207B681A687B68043312
:10246C001946104600F074FA7B68012283F8462066
:10247C007B68012283F83E207B68012283F83F2091
:10248C007B68012283F840207B68012283F841207D
:10249C007B68012283F842207B68012283F8432069
:1024AC007B68012283F844207B68012283F8452055
:1024BC007B68012283F83D20002318460837BD466F
:1024CC0080BD000080B485B000AF78607B6893F865
:1024DC003D30DBB2012B01D001233AE07B680222B4
:1024EC0083F83D207B681B68DA687B681B6842F0C8
:1024FC000102DA607B681B68184A93420ED07B6835
:10250C001B68B3F1804F09D07B681B68144A934257
:10251C0004D07B681B68134A934211D17B681B68FB
:10252C009B6803F00703FB60FB68062B10D07B68ED
:10253C001B681A687B681B6842F001021A6007E08E
:10254C007B681B681A687B681B6842F001021A6082
:10255C00002318461437BD4680BC7047002C014040
:10256C00000400400008004080B582B000AF7860E5
:10257C007B681B681B6903F00203022B22D17B686A
:10258C001B68DB6803F00203022B1BD17B681B6802
:10259C006FF002021A617B6801221A777B681B6854
:1025AC009B6903F00303002B03D0786800F0B4F9A7
:1025BC0005E0786800F0A7F9786800F0B6F97B6858
:1025CC0000221A777B681B681B6903F00403042B39
:1025DC0022D17B681B68DB6803F00403042B1BD13E
:1025EC007B681B686FF004021A617B6802221A7701
:1025FC007B681B689B6903F44073002B03D07868DD
:10260C0000F08AF905E0786800F07DF9786800F050
:10261C008CF97B6800221A777B681B681B6903F0B6
:10262C000803082B22D17B681B68DB6803F00803C6
:10263C00082B1BD17B681B686FF008021A617B6842
:10264C0004221A777B681B68DB6903F00303002BF9
:10265C0003D0786800F060F905E0786800F053F971
:10266C00786800F062F97B6800221A777B681B6837
:10267C001B6903F01003102B22D17B681B68DB68ED
:10268C0003F01003102B1BD17B681B686FF010023A
:10269C001A617B6808221A777B681B68DB6903F474
:1026AC004073002B03D0786800F036F905E07868A9
:1026BC0000F029F9786800F038F97B6800221A7765
:1026CC007B681B681B6903F00103012B0ED17B682F
:1026DC001B68DB6803F00103012B07D17B681B68C7
:1026EC006FF001021A617868FEF79CF97B681B6831
:1026FC001B6903F08003802B0ED17B681B68DB68A1
:10270C0003F08003802B07D17B681B686FF080027D
:10271C001A61786800F07BFA7B681B681B6903F010
:10272C004003402B0ED17B681B68DB6803F0400331
:10273C00402B07D17B681B686FF040021A617868E8
:10274C0000F0FCF87B681B681B6903F02003202B4E
:10275C000ED17B681B68DB6803F02003202B07D1AC
:10276C007B681B686FF020021A61786800F046FAEB
:10277C0000BF0837BD4680BD80B584B000AF78601F
:10278C0039600023FB737B6893F83C30012B01D13B
:10279C000223B4E07B68012283F83C207B68022290
:1027AC0083F83D207B681B689B68BB60BB6823F08B
:1027BC007703BB60BB6823F47F43BB607B681B68FB
:1027CC00BA689A603B681B68B3F5005F3ED0B3F5FE
:1027DC00005F00F28780B3F5805F00F08680B3F570
:1027EC00805F7FD8702B1AD0702B7BD8602B50D089
:1027FC00602B77D8502B3CD0502B73D8402B58D013
:10280C00402B6FD8302B64D0302B6BD8202B60D062
:10281C00202B67D8002B5CD0102B5AD062E07B6841
:10282C0018683B6899683B685A683B68DB6800F03D
:10283C0068F97B681B689B68BB60BB6843F07703D7
:10284C00BB607B681B68BA689A604FE07B6818684D
:10285C003B6899683B685A683B68DB6800F051F943
:10286C007B681B689A687B681B6842F480429A609C
:10287C003CE07B6818683B6859683B68DB681A4623
:10288C0000F0C8F87B681B685021184600F01FF94F
:10289C002CE07B6818683B6859683B68DB681A4613
:1028AC0000F0E6F87B681B686021184600F00FF911
:1028BC001CE07B6818683B6859683B68DB681A4603
:1028CC0000F0A8F87B681B684021184600F0FFF860
:1028DC000CE07B681A683B681B681946104600F0D0
:1028EC00F6F803E00123FB7300E000BF7B680122D4
:1028FC0083F83D207B68002283F83C20FB7B184644
:10290C001037BD4680BD80B483B000AF786000BF87
:10291C000C37BD4680BC704780B483B000AF786084
:10292C0000BF0C37BD4680BC704780B483B000AF8D
:10293C00786000BF0C37BD4680BC704780B483B054
:10294C0000AF786000BF0C37BD4680BC70470000FC
:10295C0080B485B000AF786039607B681B68FB6021
:10296C007B68294A93420BD07B68B3F1804F07D028
:10297C007B68264A934203D07B68254A934208D150
:10298C00FB6823F07003FB603B685B68FA681343D9
:10299C00FB607B681C4A93420BD07B68B3F1804F81
:1029AC0007D07B68194A934203D07B68184A93423C
:1029BC0008D1FB6823F44073FB603B68DB68FA6862
:1029CC001343FB60FB6823F080023B685B69134395
:1029DC00FB607B68FA681A603B689A687B68DA620D
:1029EC003B681A687B689A627B68074A934203D1FA
:1029FC003B681A697B681A637B6801225A6100BFC5
:102A0C001437BD4680BC7047002C014000040040C8
:102A1C000008004080B487B000AFF860B9607A60FD
:102A2C00FB681B6A7B61FB681B6A23F00102FB6875
:102A3C001A62FB689B693B613B6923F0F0033B61C5
:102A4C007B681B013A6913433B617B6923F00A03E2
:102A5C007B617A69BB6813437B61FB683A699A6155
:102A6C00FB687A691A6200BF1C37BD4680BC704790
:102A7C0080B487B000AFF860B9607A60FB681B6AFD
:102A8C007B61FB681B6A23F01002FB681A62FB680F
:102A9C009B693B613B6923F470433B617B681B037F
:102AAC003A6913433B617B6923F0A0037B61BB68EC
:102ABC001B017A6913437B61FB683A699A61FB6875
:102ACC007A691A6200BF1C37BD4680BC704780B45F
:102ADC0085B000AF786039607B689B68FB60FB68F1
:102AEC0023F07003FB603A68FB68134343F0070361
:102AFC00FB607B68FA689A6000BF1437BD4680BCE7
:102B0C00704780B487B000AFF860B9607A603B6002
:102B1C00FB689B687B617B6923F47F437B613B682B
:102B2C001A027B681A43BB6813437A6913437B61AF
:102B3C00FB687A699A6000BF1C37BD4680BC704741
:102B4C0080B485B000AF786039607B6893F83C3016
:102B5C00012B01D1022346E07B68012283F83C2043
:102B6C007B68022283F83D207B681B685B68FB60F6
:102B7C007B681B689B68BB60FB6823F07003FB6081
:102B8C003B681B68FA681343FB607B681B68FA6838
:102B9C005A607B681B68164A93420ED07B681B6890
:102BAC00B3F1804F09D07B681B68124A934204D062
:102BBC007B681B68104A93420CD1BB6823F08003DE
:102BCC00BB603B685B68BA681343BB607B681B687F
:102BDC00BA689A607B68012283F83D207B680022EA
:102BEC0083F83C20002318461437BD4680BC704740
:102BFC00002C0140000400400008004080B483B069
:102C0C0000AF786000BF0C37BD4680BC704780B405
:102C1C0083B000AF786000BF0C37BD4680BC7047F6
:102C2C0003460244934200D1704703F8011BF9E7B5
:102C3C0070B500260C4D0D4C641BA410A64209D196
:102C4C0000F01AF800260A4D0A4C641BA410A64288
:102C5C0005D170BD55F8043B98470136EEE755F8A1
:102C6C00043B98470136F2E7C02C0008C02C000842
:102C7C00C02C0008C42C0008F8B500BFF8BC08BC78
:102C8C009E467047F8B500BFF8BC08BC9E4670471E
:102C9C000000000000000000010203040607080900
:102CAC0002030405060708090A0B0C0D0E0F101081
:042CBC000102000011
:042CC00031010008D6
:042CC4000D010008F6
:102CC80009000000080000000700000006000000DE
:102CD8000300000005020505020203030024F400B6
:082CE8001000000001000000D3
:04000005080015E1F9
:00000001FF
