:020000040800F2
:1000000000500020B9130008491300084F130008DE
:10001000551300085B13000861130008000000007E
:10002000000000000000000000000000671300084E
:1000300073130008000000007F1300088B130008F2
:10004000011400080114000801140008011400083C
:10005000011400080114000801140008011400082C
:10006000011400080114000801140008011400081C
:10007000011400080114000801140008011400080C
:1000800001140008011400080114000801140008FC
:1000900001140008011400080114000801140008EC
:1000A00001140008011400080114000801140008DC
:1000B0009913000801140008011400080114000835
:1000C00001140008011400080114000801140008BC
:1000D00001140008011400080114000801140008AC
:1000E00001140008011400080114000800000000B9
:1000F0000000000000000000000000000000000000
:0C01000000000000000000005FF808F1A3
:10010C0010B5054C237833B9044B13B10448AFF345
:10011C0000800123237010BD24000020000000008B
:10012C005C2A000808B5034B1BB103490348AFF325
:10013C00008008BD00000000280000205C2A000898
:10014C0080B483B000AF786039607B68002B37DBFC
:10015C007B68632B34DC3B68002B31DB3B68632B07
:10016C002EDC7B68194A82FB03129210DB17D31A20
:10017C00174A13607968154B83FB01239A10CB1730
:10018C00D21A13469B0013445B00CA1A104B5A60D8
:10019C003B680E4A82FB03129210DB17D31A0C4AEF
:1001AC0093603968094B83FB01239A10CB17D21A41
:1001BC0013469B0013445B00CA1A054BDA6000E03F
:1001CC0000BF0C37BD4680BC704700BF67666666D3
:1001DC000000002080B582B000AF0346FB71FB79B4
:1001EC00012B26D100220121BA4801F010FC01227A
:1001FC000221B84801F00BFC01224FF48051B548A4
:10020C0001F005FC00224FF40051B24801F0FFFB55
:10021C0000224FF48041AF4801F0F9FB002220216D
:10022C00AC4801F0F4FB00224021AA4801F0EFFB9E
:10023C007BE1FB79022B26D101220121A54801F09B
:10024C00E6FB01220221A34801F0E1FB00224FF45E
:10025C008051A04801F0DBFB01224FF400519D4876
:10026C0001F0D5FB01224FF480419A4801F0CFFBFD
:10027C0000222021974801F0CAFB01224021954819
:10028C0001F0C5FB51E1FB79032B26D101220121A1
:10029C00904801F0BCFB012202218E4801F0B7FB13
:1002AC0001224FF480518B4801F0B1FB01224FF435
:1002BC000051884801F0ABFB00224FF48041854887
:1002CC0001F0A5FB00222021824801F0A0FB0122B5
:1002DC004021804801F09BFB27E1FB79042B26D1C0
:1002EC00002201217B4801F092FB01220221794876
:1002FC0001F08DFB01224FF48051764801F087FB11
:10030C0000224FF40051734801F081FB00224FF49E
:10031C008041704801F07BFB012220216D4801F0E7
:10032C0076FB012240216B4801F071FBFDE0FB796B
:10033C00052B26D101220121664801F068FB002221
:10034C000221644801F063FB01224FF480516148A3
:10035C0001F05DFB01224FF400515E4801F057FBA8
:10036C0000224FF480415B4801F051FB0122202117
:10037C00584801F04CFB01224021564801F047FB44
:10038C00D3E0FB79062B26D101220121514801F043
:10039C003EFB002202214F4801F039FB01224FF4B1
:1003AC0080514C4801F033FB01224FF40051494875
:1003BC0001F02DFB01224FF48041464801F027FB50
:1003CC0001222021434801F022FB01224021414817
:1003DC0001F01DFBA9E0FB79072B26D1012201219D
:1003EC003C4801F014FB012202213A4801F00FFBBA
:1003FC0001224FF48051374801F009FB00224FF4E1
:10040C000051344801F003FB00224FF48041314885
:10041C0001F0FDFA002220212E4801F0F8FA00220A
:10042C0040212C4801F0F3FA7FE0FB79082B26D110
:10043C0001220121274801F0EAFA01220221254874
:10044C0001F0E5FA01224FF48051224801F0DFFA65
:10045C0001224FF400511F4801F0D9FA01224FF448
:10046C0080411C4801F0D3FA01222021194801F0E7
:10047C00CEFA01224021174801F0C9FA55E0FB7968
:10048C00092B29D101220121124801F0C0FA0122C5
:10049C000221104801F0BBFA01224FF480510D48A3
:1004AC0001F0B5FA01224FF400510A4801F0AFFAFD
:1004BC0000224FF48041074801F0A9FA01222021C3
:1004CC00044801F0A4FA01224021024801F09FFAED
:1004DC002BE000BF000C0140FB79002B25D1012241
:1004EC000121144801F093FA01220221114801F074
:1004FC008EFA01224FF480510E4801F088FA012245
:10050C004FF400510B4801F082FA01224FF4804164
:10051C00084801F07CFA01222021064801F077FA04
:10052C0000224021034801F072FA00BF0837BD4693
:10053C0080BD00BF000C014080B582B000AF034607
:10054C00FB71FB79032B00F2838001A252F823F09C
:10055C006D050008A9050008E5050008210600083E
:10056C0001228021484801F052FA01224FF4807197
:10057C00454801F04CFA01224FF40071424801F059
:10058C0046FA00224FF480613F4801F040FA3F4B9D
:10059C00DB68DBB21846FFF71DFE71E001228021FB
:1005AC00394801F034FA01224FF48071364801F0D9
:1005BC002EFA00224FF40071334801F028FA012280
:1005CC004FF48061304801F022FA304B9B68DBB26B
:1005DC001846FFF7FFFD53E0012280212A4801F065
:1005EC0016FA00224FF48071274801F010FA01220C
:1005FC004FF40071244801F00AFA01224FF4806193
:10060C00214801F004FA214B5B68DBB21846FFF776
:10061C00E1FD35E0002280211B4801F0F8F90122B0
:10062C004FF48071184801F0F2F901224FF4007177
:10063C00154801F0ECF901224FF48061124801F0E9
:10064C00E6F9124B1B68DBB21846FFF7C3FD17E047
:10065C00002280210C4801F0DAF900224FF480715D
:10066C00094801F0D4F900224FF40071064801F05A
:10067C00CEF900224FF48061034801F0C8F900BFA5
:10068C0000BF0837BD4680BD000C014000000020B3
:10069C0080B500AF394B1B78042B6BD801A252F8F4
:1006AC0023F000BFC5060008EF0600080507000888
:1006BC002F0700084507000801220421304801F0EB
:1006CC00A6F9002202212E4801F0A1F901221021E5
:1006DC002B4801F09CF900224021294801F097F9A0
:1006EC0049E001224021264801F091F90022202105
:1006FC00234801F08CF93EE001220221204801F050
:10070C0086F9002208211E4801F081F901222021DE
:10071C001B4801F07CF900221021194801F077F9EF
:10072C0029E001220821164801F071F90022042168
:10073C00134801F06CF91EE001220221104801F06F
:10074C0066F9012204210E4801F061F90122082109
:10075C000B4801F05CF901221021094801F057F90E
:10076C0001222021064801F052F9012240210448BF
:10077C0001F04DF900BF00BF80BD00BF400000205C
:10078C000008014080B500AF00F036FE00F020F804
:10079C0000F0A6F800F058F80C4801F07FFD00F0CE
:1007AC006DFB00F069FD032000F04AFD034683F069
:1007BC000103DBB2002B05D000F0B2FB6421032057
:1007CC0000F0EAFC00F020F9EDE700BF4400002047
:1007DC0080B590B000AF07F118032822002118460D
:1007EC0002F00AF93B1D00221A605A609A60DA6026
:1007FC001A610223BB610123BB621023FB6200233D
:10080C007B6307F11803184601F01AF90346002B15
:10081C0001D000F0F3F80F237B600023BB600023B2
:10082C00FB6000233B6100237B613B1D00211846CC
:10083C0001F088FB0346002B01D000F0DFF800BF6D
:10084C004037BD4680BD000080B586B000AF07F1D3
:10085C00080300221A605A609A60DA603B46002254
:10086C001A605A601D4B4FF080421A601B4B40F2CD
:10087C001F325A60194B00229A60184B0922DA6019
:10088C00164B00221A61154B00229A61134801F095
:10089C00B5FC0346002B01D000F0B0F84FF48053A8
:1008AC00BB6007F1080319460C4801F051FE0346E2
:1008BC00002B01D000F0A2F800233B6000237B60EA
:1008CC003B461946054802F027F80346002B01D099
:1008DC0000F094F800BF1837BD4680BD44000020DE
:1008EC0080B588B000AF07F1100300221A605A607F
:1008FC009A60DA60384B9B69374A43F01003936176
:10090C00354B9B6903F01003FB60FB68324B9B6912
:10091C00314A43F0040393612F4B9B6903F00403AA
:10092C00BB60BB682C4B9B692B4A43F0080393615B
:10093C00294B9B6903F008037B607B6800224FF412
:10094C000051264801F063F800227E21244801F072
:10095C005EF8002247F2FF71224801F058F84FF47C
:10096C0000533B6101237B610023BB610223FB61CC
:10097C0007F110031946194800F0AEFE7E233B61C7
:10098C0001237B610023BB610223FB6107F1100390
:10099C001946134800F0A0FE4FF460733B6100232E
:1009AC007B610123BB6107F1100319460C4800F071
:1009BC0093FE47F2FF733B6101237B610023BB6114
:1009CC000223FB6107F110031946064800F084FE70
:1009DC0000BF2037BD4680BD001002400010014012
:1009EC0000080140000C014080B582B000AF786077
:1009FC0000F0F4FB00BF0837BD4680BD80B400AFEB
:100A0C0072B600BFFEE7000080B500AF012000F019
:100A1C0017FC034683F00103DBB2002B22D0944B6E
:100A2C001B78002B0AD1934B1B781A46924B1B78E0
:100A3C001946924B1B780B449A4213D1904B1B686E
:100A4C005A1E8F490A60DBB21846FFF775FD8C4BB6
:100A5C001B68002B02DA8A4B03221A600121012049
:100A6C0000F09AFB824B1B780C2B00F2FD8001A24C
:100A7C0052F823F0B50A0008DD0A0008650B0008DF
:100A8C00ED0B0008FB0A0008830B00080B0C000898
:100A9C00750C0008750C0008750C00081D0B00087F
:100AAC00A50B00082D0C0008714B1B78002B0AD1EC
:100ABC00704B1B781A46704B1B7819466F4B1B7882
:100ACC000B449A4201D100F0E3F800F04DF9CCE070
:100ADC006C4B1A78674B1A70664B1B7802211846C0
:100AEC00FFF72EFB00F040F900F06CF9BDE0614B14
:100AFC001B780133DAB25F4B1A705E4B1B78632B99
:100B0C0002D95C4B00221A70594B01221A70ACE0CE
:100B1C00584B1B7802211846FFF712FB042000F0FB
:100B2C008FFB034683F00103DBB2002B11D0514B3A
:100B3C001B780133DAB24F4B1A704E4B1B78632B78
:100B4C0002D94C4B00221A704FF4FA71042000F0B9
:100B5C0023FB00F037F988E04B4B1A78464B1A70A0
:100B6C00454B1B7802211846FFF7EAFA00F0FCF817
:100B7C0000F028F979E0404B1B780133DAB23E4B98
:100B8C001A703D4B1B78632B02D93B4B00221A7019
:100B9C00374B02221A7068E0374B1B78022118463B
:100BAC00FFF7CEFA042000F04BFB034683F0010361
:100BBC00DBB2002B11D0304B1B780133DAB22E4B49
:100BCC001A702D4B1B78632B02D92B4B00221A70F9
:100BDC004FF4FA71042000F0DFFA00F0F3F844E06F
:100BEC002A4B1A78254B1A70244B1B780221184675
:100BFC00FFF7A6FA00F0B8F800F0E4F835E01F4B68
:100C0C001B780133DAB21D4B1A701C4B1B78632B0B
:100C1C0002D91A4B00221A70154B03221A7024E0C9
:100C2C00164B1B7802211846FFF78AFA042000F0B5
:100C3C0007FB034683F00103DBB2002B11D00F4BF3
:100C4C001B780133DAB20D4B1A700C4B1B78632BEB
:100C5C0002D90A4B00221A704FF4FA71042000F0EA
:100C6C009BFA00F0AFF800E000BF00BF80BD00BFF2
:100C7C008C0000208E0000209000002092000020AC
:100C8C00100000208D0000208F000020910000201B
:100C9C0080B500AF022000F0D3FA034683F00103C5
:100CAC00DBB2002B58D04FF47A71022000F074FAAA
:100CBC00FFF7EEFC294B1B785A1ED1B2274A117054
:100CCC001846274B1B785A1ED1B2254A117019466B
:100CDC00FFF736FA234B1B78032B3AD801A252F8B4
:100CEC0023F000BF010D0008170D0008310D00089E
:100CFC00450D00081A4B1B78002B2CD1194B0122E7
:100D0C001A70174B02221A7025E0154B1B78002B1A
:100D1C0008D1144B02221A70104B03221A70104B7C
:100D2C0005221A700D4B1B78002B05D10D4B03229D
:100D3C001A700A4B02221A70084B1B78002B08D130
:100D4C00084B00221A70054B05221A70044B032223
:100D5C001A7000BF00E000BF00BF80BD140000206F
:100D6C00150000204000002080B500AF002000F0EE
:100D7C00DFF90346002B1FD0114B1B78032B1DD81A
:100D8C0001A252F823F000BFA50D0008AD0D00081C
:100D9C00B50D0008BD0D0008094B01221A700EE0BC
:100DAC00074B02221A700AE0054B03221A7006E068
:100DBC00034B00221A7002E000BF00E000BF80BDB0
:100DCC008C00002080B500AF012000F0CBF9034669
:100DDC00002B16D0284B1B78032B0ED0032B44DC96
:100DEC00012B02D0022B04D03FE0234B0A221A70B5
:100DFC0040E0214B0B221A703CE01F4B0C221A7066
:100E0C0038E0012000F094F90346002B16D01A4B61
:100E1C001B78032B0ED0032B29DC012B02D0022BC9
:100E2C0004D024E0144B04221A7023E0124B052248
:100E3C001A701FE0104B06221A701BE00E4B1B7829
:100E4C000C2B0ED00C2B14DC0A2B02D00B2B04D049
:100E5C000FE0094B01221A700CE0074B02221A70AA
:100E6C0008E0054B03221A7004E000BF02E000BF4B
:100E7C0000E000BF00BF80BD8C00002080B483B0B8
:100E8C0000AF0023FB7140E0FA7924491346DB00E4
:100E9C009B1A0B4401221A70FA7920491346DB0085
:100EAC009B1A0B44013301221A70FA791B49134621
:100EBC00DB009B1A0B44023301221A70FA79174992
:100ECC001346DB009B1A0B44033301221A70FA7988
:100EDC0012491346DB009B1A0B44043300221A7090
:100EEC00FA790E491346DB009B1A0B44053300229A
:100EFC001A70FA7909491346DB009B1A0B44063326
:100F0C00C8221A70FB790133FB71FB79022BBBD918
:100F1C0000BF00BF0C37BD4680BC7047940000205A
:100F2C0090B583B000AF0023FB71F4E0F979FA7946
:100F3C007D480B46DB005B1A0344023318787A4970
:100F4C001346DB009B1A0B44033302461A70F979E3
:100F5C00FA7975480B46DB005B1A034401331878A9
:100F6C0071491346DB009B1A0B44023302461A707C
:100F7C00F979FA796C480B46DB005B1A0344187854
:100F8C0069491346DB009B1A0B44013302461A7065
:100F9C00FB79002B0ED1FC798021644800F020FDF8
:100FAC0003461946604A2346DB001B1B13440A46C2
:100FBC001A7024E0FB79012B0FD1FC794FF480716E
:100FCC005A4800F00DFD03461946574A2346DB00EC
:100FDC001B1B13440A461A7011E0FB79022B0ED12D
:100FEC00FC794FF40071514800F0FAFC03461946A5
:100FFC004D4A2346DB001B1B13440A461A70FA7930
:10100C0049491346DB009B1A0B4403331978FA79D0
:10101C0045481346DB009B1A034402331B78994264
:10102C0076D1FA7940491346DB009B1A0B44023304
:10103C001978FA793C481346DB009B1A03440133B8
:10104C001B78994264D1FA7937491346DB009B1A15
:10105C000B4401331978FA7933481346DB009B1A99
:10106C0003441B78994253D1FA792F491346DB007C
:10107C009B1A0B441B78002B2FD1FA792A49134663
:10108C00DB009B1A0B44043301221A70FA792649AF
:10109C001346DB009B1A0B4406331B78002B12D033
:1010AC00FA7921491346DB009B1A0B4406331B7853
:1010BC00013BD8B21C491346DB009B1A0B44063388
:1010CC0002461A7024E0FA7917491346DB009B1A82
:1010DC000B44053301221A701AE0FA7912491346AF
:1010EC00DB009B1A0B440633C8221A70FA790E499E
:1010FC001346DB009B1A0B44043300221A70FA7956
:10110C0009491346DB009B1A0B44053300221A7065
:10111C00FB790133FB71FB79022B7FF607AF00BF24
:10112C0000BF0C37BD4690BD940000200008014064
:10113C0080B483B000AF0346FB71FB79032B01D95C
:10114C00FF2307E0FA7906491346DB009B1A0B4490
:10115C0004331B7818460C37BD4680BC704700BF63
:10116C009400002080B483B000AF0346FB71FB7980
:10117C00032B01D9FF2307E0FA7906491346DB005C
:10118C009B1A0B4405331B7818460C37BD4680BCA4
:10119C00704700BF9400002080B483B000AF0346BA
:1011AC003960FB713B684FF47A7203FB02F2FB79F6
:1011BC000849A1FB021292090749DB000B445A6053
:1011CC00FB79054A002102F8331000BF0C37BD46ED
:1011DC0080BC7047D34D6210AC00002080B483B04B
:1011EC0000AF0023FB711FE0FB79144ADB001344B2
:1011FC005B68002B15D0FA791049D3000B445B685F
:10120C00591E0E48D30003445960FB790B4ADB008E
:10121C0013445B68002B04D1FB79084A012102F8C6
:10122C003310FB790133FB71FB79042BDCD900BF44
:10123C0000BF0C37BD4680BC704700BFAC0000201F
:10124C0080B483B000AF0346FB71FB79094A12F8F6
:10125C003330002B14BF01230023DBB283F00103D6
:10126C00DBB203F00103DBB218460C37BD4680BC81
:10127C00704700BFAC00002080B500AF4FF4FA718E
:10128C000020FFF789FF01210120FFF785FF4FF4B4
:10129C007A710220FFF780FF64210320FFF77CFFA7
:1012AC004FF4FA710420FFF777FF00BF80BD0000F8
:1012BC0080B483B000AF0E4B9B690D4A43F0010321
:1012CC0093610B4B9B6903F001037B607B68084BBC
:1012DC00DB69074A43F08053D361054BDB6903F0AC
:1012EC0080533B603B6800BF0C37BD4680BC7047E9
:1012FC000010024080B584B000AF78607B681B683A
:10130C00B3F1804F13D10C4BDB690B4A43F0010353
:10131C00D361094BDB6903F00103FB60FB6800221E
:10132C0000211C2000F0A1F91C2000F0BAF900BF2C
:10133C001037BD4680BD00BF0010024080B400AF26
:10134C00FEE780B400AFFEE780B400AFFEE780B4E8
:10135C0000AFFEE780B400AFFEE780B400AF00BF83
:10136C00BD4680BC704780B400AF00BFBD4680BC9A
:10137C00704780B400AF00BFBD4680BC704780B5DD
:10138C0000AF00F07FF800BF80BD000080B500AF5B
:10139C00024800F0D5FF00BF80BD00BF4400002014
:1013AC0080B400AF00BFBD4680BC7047FFF7F8FFAC
:1013BC000B480C490C4A002302E0D458C4500433A7
:1013CC00C4188C42F9D3094A094C002301E013607C
:1013DC000432A242FBD301F017FBFFF7D3F970479D
:1013EC000000002024000020A02A00082400002077
:1013FC00D8000020FEE7000080B500AF084B1B684A
:10140C00074A43F010031360032000F023F90F2068
:10141C0000F008F8FFF74CFF0023184680BD00BF12
:10142C000020024080B582B000AF7860124B1A6881
:10143C00124B1B7819464FF47A73B3FBF1F3B2FBE2
:10144C00F3F3184600F03BF90346002B01D00123BF
:10145C000EE07B680F2B0AD8002279684FF0FF3022
:10146C0000F003F9064A7B681360002300E00123B7
:10147C0018460837BD4680BD18000020200000200B
:10148C001C00002080B400AF054B1B781A46054B9E
:10149C001B681344034A136000BFBD4680BC7047F1
:1014AC0020000020D400002080B400AF024B1B6849
:1014BC001846BD4680BC7047D400002080B485B06F
:1014CC0000AF78607B6803F00703FB600C4BDB68B4
:1014DC00BB60BA684FF6FF031340BB60FB681A028F
:1014EC00BB68134343F0BF6343F40033BB60044A4F
:1014FC00BB68D36000BF1437BD4680BC704700BFCB
:10150C0000ED00E080B400AF044BDB681B0A03F075
:10151C0007031846BD4680BC704700BF00ED00E0D5
:10152C0080B483B000AF0346FB7197F90730002BF2
:10153C000BDBFB7903F01F02064997F907305B09B7
:10154C00012000FA02F241F8232000BF0C37BD46FF
:10155C0080BC704700E100E080B483B000AF03466C
:10156C003960FB7197F90730002B0ADB3B68DAB264
:10157C000C4997F907301201D2B20B4483F80023BF
:10158C000AE03B68DAB20849FB7903F00F03043B2D
:10159C001201D2B20B441A7600BF0C37BD4680BC88
:1015AC00704700BF00E100E000ED00E080B489B0BE
:1015BC0000AFF860B9607A60FB6803F00703FB6169
:1015CC00FB69C3F10703042B28BF0423BB61FB6930
:1015DC000433062B02D9FB69033B00E000237B613B
:1015EC004FF0FF32BB6902FA03F3DA43BB681A40CF
:1015FC007B699A404FF0FF317B6901FA03F3D943C1
:10160C007B680B40134318462437BD4680BC70479B
:10161C0080B582B000AF78607B68013BB3F1807F0E
:10162C0001D301230FE00A4A7B68013B53600F2171
:10163C004FF0FF30FFF790FF054B00229A60044BF0
:10164C0007221A60002318460837BD4680BD00BF2C
:10165C0010E000E080B582B000AF78607868FFF7EA
:10166C002DFF00BF0837BD4680BD80B586B000AFEA
:10167C000346B9607A60FB7300237B61FFF742FF7E
:10168C0078617A68B9687869FFF790FF024697F934
:10169C000F3011461846FFF75FFF00BF1837BD46E5
:1016AC0080BD80B582B000AF0346FB7197F907305F
:1016BC001846FFF735FF00BF0837BD4680BD80B523
:1016CC0082B000AF78607868FFF7A2FF0346184637
:1016DC000837BD4680BD000080B48BB000AF786089
:1016EC00396000237B6200233B6269E101227B6A43
:1016FC0002FA03F3FB613B681B68FA691340BB6198
:10170C00BA69FB699A4240F058813B685B689A4A17
:10171C0093425ED0984A934275D8984A934258D0D7
:10172C00964A93426FD8964A934252D0944A934227
:10173C0069D8944A93424CD0924A934263D8924AC5
:10174C00934246D0904A93425DD8122B2AD8122B42
:10175C0059D801A252F823F0DF170008B917000876
:10176C00CB1700080D1800081318000813180008F0
:10177C001318000813180008131800081318000891
:10178C001318000813180008131800081318000881
:10179C00131800081318000813180008C1170008C4
:1017AC00D5170008794A934213D02CE03B68DB68CC
:1017BC003B6229E03B68DB6804333B6224E03B6816
:1017CC00DB6808333B621FE03B68DB680C333B6231
:1017DC001AE03B689B68002B02D104233B6213E0A8
:1017EC003B689B68012B05D108233B627B68FA6937
:1017FC001A6109E008233B627B68FA695A6103E0CD
:10180C0000233B6200E000BFBB69FF2B01D87B6863
:10181C0001E07B6804337B61BB69FF2B02D87B6AD8
:10182C009B0002E07B6A083B9B003B617B691A686A
:10183C000F213B6901FA03F3DB431A40396A3B6918
:10184C0001FA03F31A437B691A603B685B6803F087
:10185C008053002B00F0B1804D4B9B694C4A43F0F8
:10186C00010393614A4B9B6903F00103BB60BB68A6
:10187C00484A7B6A9B08023352F82330FB607B6A30
:10188C0003F003039B000F2202FA03F3DB43FA6815
:10189C001340FB607B68404A934213D07B683F4AFD
:1018AC0093420DD07B683E4A934207D07B683D4AF9
:1018BC00934201D1032306E0042304E0022302E057
:1018CC00012300E000237A6A02F0030292009340A5
:1018DC00FA681343FB602F497B6A9B080233FA6852
:1018EC0041F823203B685B6803F48013002B06D07F
:1018FC002D4B9A682C49BB6913438B6006E02A4B2D
:10190C009A68BB69DB43284913408B603B685B6872
:10191C0003F40013002B06D0234BDA682249BB6971
:10192C001343CB6006E0204BDA68BB69DB431E49EE
:10193C001340CB603B685B6803F40033002B06D08C
:10194C00194B5A681849BB6913434B6006E0164B98
:10195C005A68BB69DB43144913404B603B685B68B6
:10196C0003F48033002B21D00F4B1A680E49BB694E
:10197C0013430B6021E000BF000032100000311057
:10198C0000002210000021100000121000001110A5
:10199C00001002400000014000080140000C014012
:1019AC000010014000140140000401400B4B1A6868
:1019BC00BB69DB43094913400B607B6A01337B62D3
:1019CC003B681A687B6A22FA03F3002B7FF48EAE15
:1019DC0000BF00BF2C37BD4680BC704700040140DF
:1019EC0080B485B000AF78600B467B807B689A68CA
:1019FC007B881340002B02D00123FB7301E00023F2
:101A0C00FB73FB7B18461437BD4680BC704780B413
:101A1C0083B000AF78600B467B8013467B707B787D
:101A2C00002B03D07A887B681A6103E07B881A0448
:101A3C007B681A6100BF0C37BD4680BC7047000044
:101A4C0080B586B000AF78607B68002B01D1012394
:101A5C0072E27B681B6803F00103002B00F08780A7
:101A6C00924B5B6803F00C03042B0CD08F4B5B6820
:101A7C0003F00C03082B12D18C4B5B6803F48033FE
:101A8C00B3F5803F0BD1894B1B6803F40033002B5B
:101A9C006CD07B685B68002B68D101234CE27B68BF
:101AAC005B68B3F5803F06D1804B1B687F4A43F4DB
:101ABC00803313602EE07B685B68002B0CD17B4B72
:101ACC001B687A4A23F480331360784B1B68774A7F
:101ADC0023F4802313601DE07B685B68B3F5A02FB3
:101AEC000CD1724B1B68714A43F4802313606F4B0B
:101AFC001B686E4A43F4803313600BE06B4B1B681E
:101B0C006A4A23F480331360684B1B68674A23F4DA
:101B1C00802313607B685B68002B13D0FFF7C4FC39
:101B2C00386108E0FFF7C0FC02463B69D31A642B0E
:101B3C0001D9032300E25D4B1B6803F40033002B37
:101B4C00F0D014E0FFF7B0FC386108E0FFF7ACFC14
:101B5C0002463B69D31A642B01D90323ECE1534BA6
:101B6C001B6803F40033002BF0D100E000BF7B684E
:101B7C001B6803F00203002B63D04C4B5B6803F033
:101B8C000C03002B0BD0494B5B6803F00C03082BA8
:101B9C001CD1464B5B6803F48033002B16D1434BAE
:101BAC001B6803F00203002B05D07B681B69012B1B
:101BBC0001D00123C0E13D4B1B6823F0F8027B6888
:101BCC005B69DB00394913430B603AE07B681B69A6
:101BDC00002B20D0364B01221A60FFF765FC3861D0
:101BEC0008E0FFF761FC02463B69D31A022B01D9CE
:101BFC000323A1E12D4B1B6803F00203002BF0D053
:101C0C002A4B1B6823F0F8027B685B69DB002749D1
:101C1C0013430B6015E0264B00221A60FFF744FCBF
:101C2C00386108E0FFF740FC02463B69D31A022BEF
:101C3C0001D9032380E11D4B1B6803F00203002B29
:101C4C00F0D17B681B6803F00803002B3AD07B684B
:101C5C009B69002B19D0174B01221A60FFF724FC4B
:101C6C00386108E0FFF720FC02463B69D31A022BCF
:101C7C0001D9032360E10D4B5B6A03F00203002BD7
:101C8C00F0D0012000F09CFA1CE00A4B00221A60F4
:101C9C00FFF70AFC38610FE0FFF706FC02463B69D0
:101CAC00D31A022B08D9032346E100BF00100240CF
:101CBC000000424280044242924B5B6A03F00203F2
:101CCC00002BE9D17B681B6803F00403002B00F0A8
:101CDC00A6800023FB758B4BDB6903F08053002B34
:101CEC000DD1884BDB69874A43F08053D361854B18
:101CFC00DB6903F08053BB60BB680123FB75824B2F
:101D0C001B6803F48073002B18D17F4B1B687E4A31
:101D1C0043F480731360FFF7C7FB386108E0FFF7EB
:101D2C00C3FB02463B69D31A642B01D9032303E19D
:101D3C00754B1B6803F48073002BF0D07B68DB6859
:101D4C00012B06D16F4B1B6A6E4A43F001031362E1
:101D5C002DE07B68DB68002B0CD16A4B1B6A694A4F
:101D6C0023F001031362674B1B6A664A23F00403DA
:101D7C0013621CE07B68DB68052B0CD1614B1B6A82
:101D8C00604A43F0040313625E4B1B6A5D4A43F0E6
:101D9C00010313620BE05B4B1B6A5A4A23F00103ED
:101DAC001362584B1B6A574A23F0040313627B6877
:101DBC00DB68002B15D0FFF777FB38610AE0FFF7E3
:101DCC0073FB02463B69D31A41F28832934201D924
:101DDC000323B1E04B4B1B6A03F00203002BEED044
:101DEC0014E0FFF761FB38610AE0FFF75DFB024688
:101DFC003B69D31A41F28832934201D903239BE009
:101E0C00404B1B6A03F00203002BEED1FB7D012B30
:101E1C0005D13C4BDB693B4A23F08053D3617B6893
:101E2C00DB69002B00F08780364B5B6803F00C03FA
:101E3C00082B61D07B68DB69022B46D1334B002227
:101E4C001A60FFF731FB386108E0FFF72DFB024603
:101E5C003B69D31A022B01D903236DE0294B1B6874
:101E6C0003F00073002BF0D17B681B6AB3F5803F45
:101E7C0008D1244B5B6823F400327B689B682149B2
:101E8C0013434B601F4B5B6823F474127B68196A15
:101E9C007B685B6A0B431B4913434B601B4B012252
:101EAC001A60FFF701FB386108E0FFF7FDFA024604
:101EBC003B69D31A022B01D903233DE0114B1B685C
:101ECC0003F00073002BF0D035E0104B00221A60A9
:101EDC00FFF7EAFA386108E0FFF7E6FA02463B69D9
:101EEC00D31A022B01D9032326E0064B1B6803F0FF
:101EFC000073002BF0D11EE07B68DB69012B07D14E
:101F0C00012319E0001002400070004060004242C2
:101F1C000B4B5B68FB60FB6803F480327B681B6ACD
:101F2C009A4206D1FB6803F470127B685B6A9A4292
:101F3C0001D0012300E0002318461837BD4680BDB0
:101F4C000010024080B584B000AF786039607B68C7
:101F5C00002B01D10123D0E06A4B1B6803F007036F
:101F6C003A689A4210D9674B1B6823F007026549FF
:101F7C003B6813430B60634B1B6803F007033A6821
:101F8C009A4201D00123B8E07B681B6803F002037E
:101F9C00002B20D07B681B6803F00403002B05D0BA
:101FAC00594B5B68584A43F4E06353607B681B6889
:101FBC0003F00803002B05D0534B5B68524A43F4E3
:101FCC0060535360504B5B6823F0F0027B689B6856
:101FDC004D4913434B607B681B6803F00103002BD6
:101FEC0040D07B685B68012B07D1474B1B6803F41F
:101FFC000033002B15D101237FE07B685B68022B3B
:10200C0007D1414B1B6803F00073002B09D101234E
:10201C0073E03D4B1B6803F00203002B01D101233D
:10202C006BE0394B5B6823F003027B685B683649D5
:10203C0013434B60FFF738FAF8600AE0FFF734FA05
:10204C000246FB68D31A41F28832934201D903232A
:10205C0053E02D4B5B6803F00C027B685B689B00C4
:10206C009A42EBD1274B1B6803F007033A689A425C
:10207C0010D2244B1B6823F0070222493B68134300
:10208C000B60204B1B6803F007033A689A4201D09F
:10209C00012332E07B681B6803F00403002B08D09B
:1020AC00194B5B6823F4E0627B68DB6816491343C9
:1020BC004B607B681B6803F00803002B09D0124BA4
:1020CC005B6823F460527B681B69DB000E49134389
:1020DC004B6000F021F802460B4B5B681B0903F0C8
:1020EC000F030A49CB5C22FA03F3094A1360094B2C
:1020FC001B681846FFF796F9002318461037BD46A3
:10210C0080BD00BF0020024000100240742A00086D
:10211C00180000201C00002080B487B000AF002302
:10212C00FB600023BB6000237B6100237B600023EA
:10213C003B611E4B5B68FB60FB6803F00C03042BDC
:10214C0002D0082B03D027E0194B3B6127E0FB683A
:10215C009B0C03F00F03174AD35C7B60FB6803F402
:10216C008033002B10D0114B5B685B0C03F0010328
:10217C00114AD35CBB607B680D4A03FB02F2BB685F
:10218C00B2FBF3F37B6104E07B680C4A02FB03F3C4
:10219C007B617B693B6102E0054B3B6100BF3B69A6
:1021AC0018461C37BD4680BC704700BF001002406B
:1021BC0000127A00842A0008942A000800093D00C5
:1021CC0080B485B000AF78600A4B1B680A4AA2FB4A
:1021DC0003235B0A7A6802FB03F3FB6000BFFB6816
:1021EC005A1EFA60002BF9D100BF00BF1437BD4650
:1021FC0080BC704718000020D34D621080B582B0AF
:10220C0000AF78607B68002B01D1012341E07B6833
:10221C0093F83D30DBB2002B06D17B68002283F8AB
:10222C003C207868FFF766F87B68022283F83D2033
:10223C007B681A687B6804331946104600F074FA00
:10224C007B68012283F846207B68012283F83E20BC
:10225C007B68012283F83F207B68012283F84020B1
:10226C007B68012283F841207B68012283F842209D
:10227C007B68012283F843207B68012283F8442089
:10228C007B68012283F845207B68012283F83D207E
:10229C00002318460837BD4680BD000080B485B0C9
:1022AC0000AF78607B6893F83D30DBB2012B01D036
:1022BC0001233AE07B68022283F83D207B681B688F
:1022CC00DA687B681B6842F00102DA607B681B6885
:1022DC00184A93420ED07B681B68B3F1804F09D02B
:1022EC007B681B68144A934204D07B681B68134AB2
:1022FC00934211D17B681B689B6803F00703FB605A
:10230C00FB68062B10D07B681B681A687B681B68FF
:10231C0042F001021A6007E07B681B681A687B6850
:10232C001B6842F001021A60002318461437BD46A0
:10233C0080BC7047002C01400004004000080040A5
:10234C0080B582B000AF78607B681B681B6903F0B6
:10235C000203022B22D17B681B68DB6803F00203AB
:10236C00022B1BD17B681B686FF002021A617B6821
:10237C0001221A777B681B689B6903F00303002B0F
:10238C0003D0786800F0B4F905E0786800F0A7F99C
:10239C00786800F0B6F97B6800221A777B681B68B6
:1023AC001B6903F00403042B22D17B681B68DB68D8
:1023BC0003F00403042B1BD17B681B686FF0040231
:1023CC001A617B6802221A777B681B689B6903F48D
:1023DC004073002B03D0786800F08AF905E0786828
:1023EC0000F07DF9786800F08CF97B6800221A7790
:1023FC007B681B681B6903F00803082B22D17B68E0
:10240C001B68DB6803F00803082B1BD17B681B6877
:10241C006FF008021A617B6804221A777B681B68CC
:10242C00DB6903F00303002B03D0786800F060F93C
:10243C0005E0786800F053F9786800F062F97B6881
:10244C0000221A777B681B681B6903F01003102BA2
:10245C0022D17B681B68DB6803F01003102B1BD1A7
:10246C007B681B686FF010021A617B6808221A7770
:10247C007B681B68DB6903F44073002B03D078681E
:10248C0000F036F905E0786800F029F9786800F07A
:10249C0038F97B6800221A777B681B681B6903F08C
:1024AC000103012B0ED17B681B68DB6803F0010371
:1024BC00012B07D17B681B686FF001021A617868E9
:1024CC00FEF792FA7B681B681B6903F08003802B74
:1024DC000ED17B681B68DB6803F08003802B07D16F
:1024EC007B681B686FF080021A61786800F07BFAD9
:1024FC007B681B681B6903F04003402B0ED17B6883
:10250C001B68DB6803F04003402B07D17B681B681A
:10251C006FF040021A61786800F0FCF87B681B6869
:10252C001B6903F02003202B0ED17B681B68DB6832
:10253C0003F02003202B07D17B681B686FF020026F
:10254C001A61786800F046FA00BF0837BD4680BDB6
:10255C0080B584B000AF786039600023FB737B6872
:10256C0093F83C30012B01D10223B4E07B680122AB
:10257C0083F83C207B68022283F83D207B681B6833
:10258C009B68BB60BB6823F07703BB60BB6823F41C
:10259C007F43BB607B681B68BA689A603B681B68AA
:1025AC00B3F5005F3ED0B3F5005F00F28780B3F562
:1025BC00805F00F08680B3F5805F7FD8702B1AD0D7
:1025CC00702B7BD8602B50D0602B77D8502B3CD005
:1025DC00502B73D8402B58D0402B6FD8302B64D055
:1025EC00302B6BD8202B60D0202B67D8002B5CD0E5
:1025FC00102B5AD062E07B6818683B6899683B687E
:10260C005A683B68DB6800F068F97B681B689B685C
:10261C00BB60BB6843F07703BB607B681B68BA6820
:10262C009A604FE07B6818683B6899683B685A6809
:10263C003B68DB6800F051F97B681B689A687B6823
:10264C001B6842F480429A603CE07B6818683B68E7
:10265C0059683B68DB681A4600F0C8F87B681B6851
:10266C005021184600F01FF92CE07B6818683B6875
:10267C0059683B68DB681A4600F0E6F87B681B6813
:10268C006021184600F00FF91CE07B6818683B6865
:10269C0059683B68DB681A4600F0A8F87B681B6831
:1026AC004021184600F0FFF80CE07B681A683B6884
:1026BC001B681946104600F0F6F803E00123FB7383
:1026CC0000E000BF7B68012283F83D207B6800227C
:1026DC0083F83C20FB7B18461037BD4680BD80B488
:1026EC0083B000AF786000BF0C37BD4680BC70472C
:1026FC0080B483B000AF786000BF0C37BD4680BC9F
:10270C00704780B483B000AF786000BF0C37BD4613
:10271C0080BC704780B483B000AF786000BF0C37CA
:10272C00BD4680BC7047000080B485B000AF7860B7
:10273C0039607B681B68FB607B68294A93420BD02D
:10274C007B68B3F1804F07D07B68264A934203D055
:10275C007B68254A934208D1FB6823F07003FB6029
:10276C003B685B68FA681343FB607B681C4A9342C6
:10277C000BD07B68B3F1804F07D07B68194A93422A
:10278C0003D07B68184A934208D1FB6823F440734A
:10279C00FB603B68DB68FA681343FB60FB6823F063
:1027AC0080023B685B691343FB607B68FA681A60C4
:1027BC003B689A687B68DA623B681A687B689A6245
:1027CC007B68074A934203D13B681A697B681A639A
:1027DC007B6801225A6100BF1437BD4680BC70472C
:1027EC00002C0140000400400008004080B487B079
:1027FC0000AFF860B9607A60FB681B6A7B61FB68AC
:10280C001B6A23F00102FB681A62FB689B693B613F
:10281C003B6923F0F0033B617B681B013A6913436E
:10282C003B617B6923F00A037B617A69BB681343C4
:10283C007B61FB683A699A61FB687A691A6200BF2E
:10284C001C37BD4680BC704780B487B000AFF860C1
:10285C00B9607A60FB681B6A7B61FB681B6A23F0BA
:10286C001002FB681A62FB689B693B613B6923F4AD
:10287C0070433B617B681B033A6913433B617B6983
:10288C0023F0A0037B61BB681B017A6913437B6156
:10289C00FB683A699A61FB687A691A6200BF1C3757
:1028AC00BD4680BC704780B485B000AF786039609D
:1028BC007B689B68FB60FB6823F07003FB603A68E5
:1028CC00FB68134343F00703FB607B68FA689A606C
:1028DC0000BF1437BD4680BC704780B487B000AFD2
:1028EC00F860B9607A603B60FB689B687B617B69D0
:1028FC0023F47F437B613B681A027B681A43BB68F5
:10290C0013437A6913437B61FB687A699A6000BF51
:10291C001C37BD4680BC704780B485B000AF786072
:10292C0039607B6893F83C30012B01D1022346E0DF
:10293C007B68012283F83C207B68022283F83D20CF
:10294C007B681B685B68FB607B681B689B68BB6073
:10295C00FB6823F07003FB603B681B68FA68134349
:10296C00FB607B681B68FA685A607B681B68164AB8
:10297C0093420ED07B681B68B3F1804F09D07B6803
:10298C001B68124A934204D07B681B68104A93421E
:10299C000CD1BB6823F08003BB603B685B68BA68F2
:1029AC001343BB607B681B68BA689A607B68012222
:1029BC0083F83D207B68002283F83C2000231846D6
:1029CC001437BD4680BC7047002C01400004004009
:1029DC000008004080B483B000AF786000BF0C37B3
:1029EC00BD4680BC704780B483B000AF786000BF38
:1029FC000C37BD4680BC704703460244934200D15D
:102A0C00704703F8011BF9E770B500260C4D0D4C0F
:102A1C00641BA410A64209D100F01AF800260A4D36
:102A2C000A4C641BA410A64205D170BD55F8043B9A
:102A3C0098470136EEE755F8043B98470136F2E724
:102A4C00982A0008982A0008982A00089C2A00084E
:102A5C00F8B500BFF8BC08BC9E467047F8B500BF7F
:082A6C00F8BC08BC9E4670474F
:102A7400000000000000000001020304060708092A
:102A840002030405060708090A0B0C0D0E0F1010AB
:042A9400010200003B
:042A98003101000800
:042A9C000D01000820
:102AA0000900000008000000070000000600000008
:102AB00003000000050300000024F40010000000E3
:042AC0000100000011
:04000005080013B923
:00000001FF
